{
  "contractName": "Lottery",
  "abi": [
    {
      "inputs": [],
      "stateMutability": "nonpayable",
      "type": "constructor"
    },
    {
      "anonymous": false,
      "inputs": [
        {
          "indexed": false,
          "internalType": "bytes",
          "name": "name",
          "type": "bytes"
        },
        {
          "indexed": false,
          "internalType": "uint256",
          "name": "prize",
          "type": "uint256"
        },
        {
          "indexed": false,
          "internalType": "uint256",
          "name": "timestamp",
          "type": "uint256"
        }
      ],
      "name": "evCreateLottery",
      "type": "event"
    },
    {
      "anonymous": false,
      "inputs": [
        {
          "indexed": false,
          "internalType": "address",
          "name": "winner",
          "type": "address"
        },
        {
          "indexed": false,
          "internalType": "uint256",
          "name": "amount",
          "type": "uint256"
        },
        {
          "indexed": false,
          "internalType": "uint256",
          "name": "timestamp",
          "type": "uint256"
        }
      ],
      "name": "evWinner",
      "type": "event"
    },
    {
      "inputs": [
        {
          "internalType": "uint256",
          "name": "",
          "type": "uint256"
        }
      ],
      "name": "idToName",
      "outputs": [
        {
          "internalType": "bytes",
          "name": "",
          "type": "bytes"
        }
      ],
      "stateMutability": "view",
      "type": "function",
      "constant": true
    },
    {
      "inputs": [
        {
          "internalType": "uint256",
          "name": "",
          "type": "uint256"
        }
      ],
      "name": "lotteries",
      "outputs": [
        {
          "internalType": "uint256",
          "name": "id",
          "type": "uint256"
        },
        {
          "internalType": "bool",
          "name": "isOver",
          "type": "bool"
        },
        {
          "internalType": "bytes",
          "name": "name",
          "type": "bytes"
        },
        {
          "internalType": "uint256",
          "name": "finishDate",
          "type": "uint256"
        },
        {
          "internalType": "uint256",
          "name": "currentBalance",
          "type": "uint256"
        },
        {
          "internalType": "uint256",
          "name": "minBid",
          "type": "uint256"
        },
        {
          "internalType": "uint256",
          "name": "finalResult",
          "type": "uint256"
        },
        {
          "internalType": "uint256",
          "name": "totalTicketsSold",
          "type": "uint256"
        }
      ],
      "stateMutability": "view",
      "type": "function",
      "constant": true
    },
    {
      "inputs": [
        {
          "internalType": "bytes",
          "name": "",
          "type": "bytes"
        }
      ],
      "name": "nameToId",
      "outputs": [
        {
          "internalType": "uint256",
          "name": "",
          "type": "uint256"
        }
      ],
      "stateMutability": "view",
      "type": "function",
      "constant": true
    },
    {
      "inputs": [],
      "name": "nextId",
      "outputs": [
        {
          "internalType": "uint256",
          "name": "",
          "type": "uint256"
        }
      ],
      "stateMutability": "view",
      "type": "function",
      "constant": true
    },
    {
      "inputs": [
        {
          "internalType": "bytes",
          "name": "_name",
          "type": "bytes"
        }
      ],
      "name": "createLottery",
      "outputs": [],
      "stateMutability": "payable",
      "type": "function",
      "payable": true
    },
    {
      "inputs": [
        {
          "internalType": "bytes",
          "name": "_name",
          "type": "bytes"
        }
      ],
      "name": "redeemPrize",
      "outputs": [],
      "stateMutability": "nonpayable",
      "type": "function"
    },
    {
      "inputs": [
        {
          "internalType": "bytes",
          "name": "_name",
          "type": "bytes"
        }
      ],
      "name": "isOver",
      "outputs": [
        {
          "internalType": "bool",
          "name": "",
          "type": "bool"
        }
      ],
      "stateMutability": "view",
      "type": "function",
      "constant": true
    },
    {
      "inputs": [
        {
          "internalType": "bytes",
          "name": "_name",
          "type": "bytes"
        },
        {
          "internalType": "uint256",
          "name": "_ticketNumber",
          "type": "uint256"
        }
      ],
      "name": "enterOnLottery",
      "outputs": [],
      "stateMutability": "payable",
      "type": "function",
      "payable": true
    }
  ],
  "bytecode": "0x608060405234801561001057600080fd5b50336000806101000a81548173ffffffffffffffffffffffffffffffffffffffff021916908373ffffffffffffffffffffffffffffffffffffffff160217905550611407806100606000396000f3fe60806040526004361061007b5760003560e01c806361b8ce8c1161004e57806361b8ce8c1461015a578063d280fcfd14610185578063f2e5fd7d146101a1578063f8730c6b146101de5761007b565b80631398e0761461008057806334414d94146100c4578063364410b3146101015780635a7ec9061461013e575b600080fd5b34801561008c57600080fd5b506100a760048036038101906100a29190610c99565b610207565b6040516100bb9897969594939291906110a3565b60405180910390f35b3480156100d057600080fd5b506100eb60048036038101906100e69190610c04565b6102e4565b6040516100f89190610f4d565b60405180910390f35b34801561010d57600080fd5b5061012860048036038101906101239190610c99565b610325565b6040516101359190610f68565b60405180910390f35b61015860048036038101906101539190610c04565b6103c5565b005b34801561016657600080fd5b5061016f61059a565b60405161017c9190611088565b60405180910390f35b61019f600480360381019061019a9190610c45565b6105a0565b005b3480156101ad57600080fd5b506101c860048036038101906101c39190610c04565b61082f565b6040516101d59190611088565b60405180910390f35b3480156101ea57600080fd5b5061020560048036038101906102009190610c04565b61085d565b005b60026020528060005260406000206000915090508060000154908060010160009054906101000a900460ff1690806002018054610243906112a1565b80601f016020809104026020016040519081016040528092919081815260200182805461026f906112a1565b80156102bc5780601f10610291576101008083540402835291602001916102bc565b820191906000526020600020905b81548152906001019060200180831161029f57829003601f168201915b5050505050908060030154908060040154908060050154908060060154908060070154905088565b600042600260006004856040516102fb9190610eff565b90815260200160405180910390205481526020019081526020016000206003015410159050919050565b60036020528060005260406000206000915090508054610344906112a1565b80601f0160208091040260200160405190810160405280929190818152602001828054610370906112a1565b80156103bd5780601f10610392576101008083540402835291602001916103bd565b820191906000526020600020905b8154815290600101906020018083116103a057829003601f168201915b505050505081565b66038d7ea4c6800034101561040f576040517f08c379a000000000000000000000000000000000000000000000000000000000815260040161040690610fe8565b60405180910390fd5b60405180610100016040528060015481526020016000151581526020018281526020016102584261044091906111c1565b815260200134815260200166038d7ea4c6800081526020016000815260200160008152506002600060015481526020019081526020016000206000820151816000015560208201518160010160006101000a81548160ff02191690831515021790555060408201518160020190805190602001906104bf929190610ae4565b50606082015181600301556080820151816004015560a0820151816005015560c0820151816006015560e0820151816007015590505080600360006001548152602001908152602001600020908051906020019061051e929190610ae4565b506001546004826040516105329190610eff565b90815260200160405180910390208190555060016000815480929190610557906112d3565b91905055507fe09f0130ef35bec61f9253b6263d130d5d4a4562c34d5370c333f9752b98722f81344260405161058f93929190610f8a565b60405180910390a150565b60015481565b42600260006004856040516105b59190610eff565b9081526020016040518091039020548152602001908152602001600020600301541015610617576040517f08c379a000000000000000000000000000000000000000000000000000000000815260040161060e90610fc8565b60405180910390fd5b66038d7ea4c68000600260006004856040516106339190610eff565b9081526020016040518091039020548152602001908152602001600020600501541015610695576040517f08c379a000000000000000000000000000000000000000000000000000000000815260040161068c90611048565b60405180910390fd5b600073ffffffffffffffffffffffffffffffffffffffff16600560006004856040516106c19190610eff565b9081526020016040518091039020548152602001908152602001600020600083815260200190815260200160002060009054906101000a900473ffffffffffffffffffffffffffffffffffffffff1673ffffffffffffffffffffffffffffffffffffffff161415610767576040517f08c379a000000000000000000000000000000000000000000000000000000000815260040161075e90611068565b60405180910390fd5b34600260006001548152602001908152602001600020600401600082825461078f91906111c1565b92505081905550600160026000600154815260200190815260200160002060070160008282546107bf91906111c1565b9250508190555033600560006001548152602001908152602001600020600083815260200190815260200160002060006101000a81548173ffffffffffffffffffffffffffffffffffffffff021916908373ffffffffffffffffffffffffffffffffffffffff1602179055505050565b6004818051602081018201805184825260208301602085012081835280955050505050506000915090505481565b42600260006004846040516108729190610eff565b90815260200160405180910390205481526020019081526020016000206003015410156108d4576040517f08c379a00000000000000000000000000000000000000000000000000000000081526004016108cb90611028565b60405180910390fd5b3373ffffffffffffffffffffffffffffffffffffffff16600560006004846040516108ff9190610eff565b90815260200160405180910390205481526020019081526020016000206000600260006004866040516109329190610eff565b908152602001604051809103902054815260200190815260200160002060060154815260200190815260200160002060009054906101000a900473ffffffffffffffffffffffffffffffffffffffff1673ffffffffffffffffffffffffffffffffffffffff16146109d8576040517f08c379a00000000000000000000000000000000000000000000000000000000081526004016109cf90611008565b60405180910390fd5b6001600260006004846040516109ee9190610eff565b908152602001604051809103902054815260200190815260200160002060010160006101000a81548160ff021916908315150217905550600060026000600484604051610a3b9190610eff565b90815260200160405180910390205481526020019081526020016000206006015490503373ffffffffffffffffffffffffffffffffffffffff166108fc829081150290604051600060405180830381858888f19350505050158015610aa4573d6000803e3d6000fd5b507f2cf71a84f8de742dd27dddb481d89608698ae4ceb54e4f920ec2652a063afdcf338242604051610ad893929190610f16565b60405180910390a15050565b828054610af0906112a1565b90600052602060002090601f016020900481019282610b125760008555610b59565b82601f10610b2b57805160ff1916838001178555610b59565b82800160010185558215610b59579182015b82811115610b58578251825591602001919060010190610b3d565b5b509050610b669190610b6a565b5090565b5b80821115610b83576000816000905550600101610b6b565b5090565b6000610b9a610b9584611159565b611128565b905082815260208101848484011115610bb257600080fd5b610bbd84828561125f565b509392505050565b600082601f830112610bd657600080fd5b8135610be6848260208601610b87565b91505092915050565b600081359050610bfe816113ba565b92915050565b600060208284031215610c1657600080fd5b600082013567ffffffffffffffff811115610c3057600080fd5b610c3c84828501610bc5565b91505092915050565b60008060408385031215610c5857600080fd5b600083013567ffffffffffffffff811115610c7257600080fd5b610c7e85828601610bc5565b9250506020610c8f85828601610bef565b9150509250929050565b600060208284031215610cab57600080fd5b6000610cb984828501610bef565b91505092915050565b610ccb81611217565b82525050565b610cda81611229565b82525050565b6000610ceb82611189565b610cf58185611194565b9350610d0581856020860161126e565b610d0e816113a9565b840191505092915050565b6000610d2482611189565b610d2e81856111a5565b9350610d3e81856020860161126e565b80840191505092915050565b6000610d57600b836111b0565b91507f74696d65206973207570210000000000000000000000000000000000000000006000830152602082019050919050565b6000610d97602a836111b0565b91507f76616c7565206d75737420626520657175616c206f722068696768657220746860008301527f616e20302e3120657468000000000000000000000000000000000000000000006020830152604082019050919050565b6000610dfd6016836111b0565b91507f594f5520415245204e4f54205448452057494e4e4552000000000000000000006000830152602082019050919050565b6000610e3d6017836111b0565b91507f4c6f7474657279206973206e6f74206f766572205965740000000000000000006000830152602082019050919050565b6000610e7d6019836111b0565b91507f4d494e494e4d414c2042494420574153204e4f54204d455421000000000000006000830152602082019050919050565b6000610ebd601d836111b0565b91507f54686973207469636b65742077617320616c72656164792074616b656e0000006000830152602082019050919050565b610ef981611255565b82525050565b6000610f0b8284610d19565b915081905092915050565b6000606082019050610f2b6000830186610cc2565b610f386020830185610ef0565b610f456040830184610ef0565b949350505050565b6000602082019050610f626000830184610cd1565b92915050565b60006020820190508181036000830152610f828184610ce0565b905092915050565b60006060820190508181036000830152610fa48186610ce0565b9050610fb36020830185610ef0565b610fc06040830184610ef0565b949350505050565b60006020820190508181036000830152610fe181610d4a565b9050919050565b6000602082019050818103600083015261100181610d8a565b9050919050565b6000602082019050818103600083015261102181610df0565b9050919050565b6000602082019050818103600083015261104181610e30565b9050919050565b6000602082019050818103600083015261106181610e70565b9050919050565b6000602082019050818103600083015261108181610eb0565b9050919050565b600060208201905061109d6000830184610ef0565b92915050565b6000610100820190506110b9600083018b610ef0565b6110c6602083018a610cd1565b81810360408301526110d88189610ce0565b90506110e76060830188610ef0565b6110f46080830187610ef0565b61110160a0830186610ef0565b61110e60c0830185610ef0565b61111b60e0830184610ef0565b9998505050505050505050565b6000604051905081810181811067ffffffffffffffff8211171561114f5761114e61137a565b5b8060405250919050565b600067ffffffffffffffff8211156111745761117361137a565b5b601f19601f8301169050602081019050919050565b600081519050919050565b600082825260208201905092915050565b600081905092915050565b600082825260208201905092915050565b60006111cc82611255565b91506111d783611255565b9250827fffffffffffffffffffffffffffffffffffffffffffffffffffffffffffffffff0382111561120c5761120b61131c565b5b828201905092915050565b600061122282611235565b9050919050565b60008115159050919050565b600073ffffffffffffffffffffffffffffffffffffffff82169050919050565b6000819050919050565b82818337600083830152505050565b60005b8381101561128c578082015181840152602081019050611271565b8381111561129b576000848401525b50505050565b600060028204905060018216806112b957607f821691505b602082108114156112cd576112cc61134b565b5b50919050565b60006112de82611255565b91507fffffffffffffffffffffffffffffffffffffffffffffffffffffffffffffffff8214156113115761131061131c565b5b600182019050919050565b7f4e487b7100000000000000000000000000000000000000000000000000000000600052601160045260246000fd5b7f4e487b7100000000000000000000000000000000000000000000000000000000600052602260045260246000fd5b7f4e487b7100000000000000000000000000000000000000000000000000000000600052604160045260246000fd5b6000601f19601f8301169050919050565b6113c381611255565b81146113ce57600080fd5b5056fea26469706673582212200e6d1a89fbef0fc8b8e22293a623e946039785205a019127cf92b14eea7af46c64736f6c63430008000033",
  "immutableReferences": {},
  "source": "// SPDX-License-Identifier: MIT\npragma solidity >=0.4.22 <0.9.0;\n\ncontract Lottery {\n    address admin;\n    uint256 public nextId;\n\n    constructor() {\n        admin = msg.sender;\n    }\n\n    event evWinner(address winner, uint256 amount, uint256 timestamp);\n    event evCreateLottery(bytes name, uint256 prize, uint256 timestamp);\n\n    struct LotteryStructure {\n        uint256 id;\n        bool isOver;\n        bytes name;\n        uint256 finishDate;\n        uint256 currentBalance;\n        uint256 minBid;\n        uint256 finalResult;\n        uint256 totalTicketsSold;\n    }\n\n    mapping(uint256 => LotteryStructure) public lotteries;\n    mapping(uint256 => bytes) public idToName;\n    mapping(bytes => uint256) public nameToId;\n    mapping(uint256 => mapping(uint256 => address)) eachTicket; //nextId,ticket number,address - the same address can buy more than one ticket\n\n    function createLottery(bytes memory _name) external payable {\n        require(\n            msg.value >= 0.001 ether,\n            \"value must be equal or higher than 0.1 eth\"\n        );\n        lotteries[nextId] = LotteryStructure(\n            nextId, //id\n            false, //is over\n            _name, //name\n            block.timestamp + 10 minutes, //finish date\n            msg.value, //currentBalance\n            0.001 ether, //min bid\n            0, // final result\n            0 //total tickets sold\n        );\n\n        idToName[nextId] = _name;\n        nameToId[_name] = nextId;\n\n        nextId++;\n\n        emit evCreateLottery(_name, msg.value, block.timestamp);\n    }\n\n    function redeemPrize(bytes memory _name) external {\n        require(\n            lotteries[nameToId[_name]].finishDate >= block.timestamp,\n            \"Lottery is not over Yet\"\n        );\n\n        //GET THE RESULT FROM THE CHAINLINK FUNCTION HERE\n\n        require(\n            eachTicket[nameToId[_name]][\n                lotteries[nameToId[_name]].finalResult\n            ] == msg.sender,\n            \"YOU ARE NOT THE WINNER\"\n        );\n\n        lotteries[nameToId[_name]].isOver = true;\n        uint256 brutePrize = lotteries[nameToId[_name]].finalResult;\n        // lotteries[nameToId[_name]].finalResult = 0; //dont need to set the chosen number to 0\n        payable(msg.sender).transfer(brutePrize);\n\n        emit evWinner(msg.sender, brutePrize, block.timestamp);\n    }\n\n    function isOver(bytes memory _name) external view returns (bool) {\n        return lotteries[nameToId[_name]].finishDate >= block.timestamp;\n    }\n\n    function enterOnLottery(bytes memory _name, uint256 _ticketNumber)\n        external\n        payable\n    {\n        //checking if is over\n        // require(\n        //     !lotteries[nameToId[_name]].isOver,\n        //     \"This lottery is over! Check [FUNC] to check who is the winner\"\n        // );\n\n        //check if time is up\n        require(\n            lotteries[nameToId[_name]].finishDate >= block.timestamp,\n            \"time is up!\"\n        );\n\n        //checking if min bid is provided\n        require(\n            lotteries[nameToId[_name]].minBid >= 0.001 ether,\n            \"MININMAL BID WAS NOT MET!\"\n        );\n\n        require(\n            eachTicket[nameToId[_name]][_ticketNumber] != address(0),\n            \"This ticket was already taken\"\n        );\n\n        lotteries[nextId].currentBalance += msg.value;\n        lotteries[nextId].totalTicketsSold += 1;\n        eachTicket[nextId][_ticketNumber] = msg.sender;\n    }\n}\n",
  "sourcePath": "/Volumes/APPLE HDD/reactprojects/lottery/contracts/Lottery.sol",
  "compiler": {
    "name": "solc",
    "version": "0.8.0+commit.c7dfd78e.Emscripten.clang"
  },
  "schemaVersion": "3.4.3",
  "updatedAt": "2021-10-28T21:45:01.517Z",
  "networkType": "ethereum",
  "devdoc": {
    "kind": "dev",
    "methods": {},
    "version": 1
  },
  "userdoc": {
    "kind": "user",
    "methods": {},
    "version": 1
  }
}