{
  "contractName": "Lottery",
  "abi": [
    {
      "inputs": [],
      "stateMutability": "nonpayable",
      "type": "constructor"
    },
    {
      "inputs": [],
      "name": "nextId",
      "outputs": [
        {
          "internalType": "uint256",
          "name": "",
          "type": "uint256"
        }
      ],
      "stateMutability": "view",
      "type": "function",
      "constant": true
    }
  ],
  "bytecode": "0x608060405234801561001057600080fd5b50336000806101000a81548173ffffffffffffffffffffffffffffffffffffffff021916908373ffffffffffffffffffffffffffffffffffffffff16021790555060b38061005f6000396000f3fe6080604052348015600f57600080fd5b506004361060285760003560e01c806361b8ce8c14602d575b600080fd5b60336047565b604051603e9190605a565b60405180910390f35b60015481565b6054816073565b82525050565b6000602082019050606d6000830184604d565b92915050565b600081905091905056fea2646970667358221220c47c7bc17bb44b5c5426cecc1f5ba4be8d9cc99a934acc7a8a2c6308f9d2503e64736f6c63430008000033",
  "immutableReferences": {},
  "source": "// SPDX-License-Identifier: MIT\npragma solidity >=0.4.22 <0.9.0;\n\ncontract Lottery {\n    address admin;\n    uint256 public nextId;\n\n    //structure with time limit, (few minutes)\n    struct LotteryStructure {\n        uint256 id;\n        bool isOver;\n        bytes name;\n        uint256 finishTime;\n        uint256 currentBalance;\n        uint256 minBid;\n    }\n\n    mapping(uint256 => LotteryStructure) lotteries;\n\n    constructor() {\n        admin = msg.sender;\n    }\n}\n",
  "sourcePath": "/Volumes/APPLE HDD/reactprojects/lottery/contracts/Lottery.sol",
  "compiler": {
    "name": "solc",
    "version": "0.8.0+commit.c7dfd78e.Emscripten.clang"
  },
  "schemaVersion": "3.4.3",
  "updatedAt": "2021-10-28T14:55:33.062Z",
  "networkType": "ethereum",
  "devdoc": {
    "kind": "dev",
    "methods": {},
    "version": 1
  },
  "userdoc": {
    "kind": "user",
    "methods": {},
    "version": 1
  }
}